{
  "contractName": "Charity",
  "abi": [
    {
      "inputs": [],
      "stateMutability": "nonpayable",
      "type": "constructor"
    },
    {
      "inputs": [
        {
          "internalType": "uint256",
          "name": "",
          "type": "uint256"
        },
        {
          "internalType": "address",
          "name": "",
          "type": "address"
        }
      ],
      "name": "aprovals",
      "outputs": [
        {
          "internalType": "bool",
          "name": "",
          "type": "bool"
        }
      ],
      "stateMutability": "view",
      "type": "function"
    },
    {
      "inputs": [],
      "name": "charity",
      "outputs": [
        {
          "internalType": "string",
          "name": "charityName",
          "type": "string"
        },
        {
          "internalType": "address",
          "name": "charityAddress",
          "type": "address"
        },
        {
          "internalType": "string",
          "name": "Desc",
          "type": "string"
        }
      ],
      "stateMutability": "view",
      "type": "function"
    },
    {
      "inputs": [
        {
          "internalType": "address",
          "name": "",
          "type": "address"
        }
      ],
      "name": "donators",
      "outputs": [
        {
          "internalType": "address",
          "name": "donatorAddress",
          "type": "address"
        },
        {
          "internalType": "string",
          "name": "donarname",
          "type": "string"
        },
        {
          "internalType": "uint256",
          "name": "projectId",
          "type": "uint256"
        }
      ],
      "stateMutability": "view",
      "type": "function"
    },
    {
      "inputs": [
        {
          "internalType": "uint256",
          "name": "",
          "type": "uint256"
        }
      ],
      "name": "requests",
      "outputs": [
        {
          "internalType": "uint256",
          "name": "Id",
          "type": "uint256"
        },
        {
          "internalType": "string",
          "name": "description",
          "type": "string"
        },
        {
          "internalType": "uint256",
          "name": "goalAmount",
          "type": "uint256"
        },
        {
          "internalType": "uint256",
          "name": "fundedAmount",
          "type": "uint256"
        },
        {
          "internalType": "address",
          "name": "account",
          "type": "address"
        },
        {
          "internalType": "bool",
          "name": "succsess",
          "type": "bool"
        },
        {
          "internalType": "uint256",
          "name": "votesCount",
          "type": "uint256"
        },
        {
          "internalType": "uint256",
          "name": "totalvotes",
          "type": "uint256"
        }
      ],
      "stateMutability": "view",
      "type": "function"
    },
    {
      "inputs": [
        {
          "internalType": "address",
          "name": "to",
          "type": "address"
        },
        {
          "internalType": "uint256",
          "name": "amount",
          "type": "uint256"
        }
      ],
      "name": "transfor",
      "outputs": [
        {
          "internalType": "bool",
          "name": "",
          "type": "bool"
        }
      ],
      "stateMutability": "payable",
      "type": "function"
    },
    {
      "inputs": [
        {
          "internalType": "string",
          "name": "name",
          "type": "string"
        },
        {
          "internalType": "uint256",
          "name": "pId",
          "type": "uint256"
        }
      ],
      "name": "creatDonator",
      "outputs": [
        {
          "components": [
            {
              "internalType": "address",
              "name": "donatorAddress",
              "type": "address"
            },
            {
              "internalType": "string",
              "name": "donarname",
              "type": "string"
            },
            {
              "internalType": "uint256",
              "name": "projectId",
              "type": "uint256"
            }
          ],
          "internalType": "struct Charity.Donator",
          "name": "",
          "type": "tuple"
        }
      ],
      "stateMutability": "nonpayable",
      "type": "function"
    },
    {
      "inputs": [
        {
          "internalType": "uint256",
          "name": "amount",
          "type": "uint256"
        }
      ],
      "name": "donation",
      "outputs": [
        {
          "internalType": "bool",
          "name": "",
          "type": "bool"
        }
      ],
      "stateMutability": "payable",
      "type": "function"
    },
    {
      "inputs": [
        {
          "internalType": "uint256",
          "name": "requestId",
          "type": "uint256"
        },
        {
          "internalType": "bool",
          "name": "vote",
          "type": "bool"
        }
      ],
      "name": "donarotVotesRequset",
      "outputs": [],
      "stateMutability": "nonpayable",
      "type": "function"
    },
    {
      "inputs": [
        {
          "internalType": "string",
          "name": "description",
          "type": "string"
        },
        {
          "internalType": "uint256",
          "name": "goalAmount",
          "type": "uint256"
        },
        {
          "internalType": "address",
          "name": "account",
          "type": "address"
        }
      ],
      "name": "createFundingBeneficiaryRequest",
      "outputs": [],
      "stateMutability": "nonpayable",
      "type": "function"
    },
    {
      "inputs": [
        {
          "internalType": "uint256",
          "name": "requestId",
          "type": "uint256"
        }
      ],
      "name": "beneficiaryGetMoney",
      "outputs": [
        {
          "internalType": "bool",
          "name": "",
          "type": "bool"
        }
      ],
      "stateMutability": "nonpayable",
      "type": "function"
    }
  ],
  "bytecode": "0x60806040523480156200001157600080fd5b5060405180606001604052806040518060400160405280601281526020017f636861726974794f66334d75736b65747279000000000000000000000000000081525081526020013373ffffffffffffffffffffffffffffffffffffffff1681526020016040518060400160405280601381526020017f47656e75696e6520436861726974792041707000000000000000000000000000815250815250600080820151816000019081620000c59190620003b0565b5060208201518160010160006101000a81548173ffffffffffffffffffffffffffffffffffffffff021916908373ffffffffffffffffffffffffffffffffffffffff1602179055506040820151816002019081620001249190620003b0565b50905050600060068190555062000497565b600081519050919050565b7f4e487b7100000000000000000000000000000000000000000000000000000000600052604160045260246000fd5b7f4e487b7100000000000000000000000000000000000000000000000000000000600052602260045260246000fd5b60006002820490506001821680620001b857607f821691505b602082108103620001ce57620001cd62000170565b5b50919050565b60008190508160005260206000209050919050565b60006020601f8301049050919050565b600082821b905092915050565b600060088302620002387fffffffffffffffffffffffffffffffffffffffffffffffffffffffffffffffff82620001f9565b620002448683620001f9565b95508019841693508086168417925050509392505050565b6000819050919050565b6000819050919050565b6000620002916200028b62000285846200025c565b62000266565b6200025c565b9050919050565b6000819050919050565b620002ad8362000270565b620002c5620002bc8262000298565b84845462000206565b825550505050565b600090565b620002dc620002cd565b620002e9818484620002a2565b505050565b5b81811015620003115762000305600082620002d2565b600181019050620002ef565b5050565b601f82111562000360576200032a81620001d4565b6200033584620001e9565b8101602085101562000345578190505b6200035d6200035485620001e9565b830182620002ee565b50505b505050565b600082821c905092915050565b6000620003856000198460080262000365565b1980831691505092915050565b6000620003a0838362000372565b9150826002028217905092915050565b620003bb8262000136565b67ffffffffffffffff811115620003d757620003d662000141565b5b620003e382546200019f565b620003f082828562000315565b600060209050601f83116001811462000428576000841562000413578287015190505b6200041f858262000392565b8655506200048f565b601f1984166200043886620001d4565b60005b8281101562000462578489015182556001820191506020850194506020810190506200043b565b868310156200048257848901516200047e601f89168262000372565b8355505b6001600288020188555050505b505050505050565b61175980620004a76000396000f3fe6080604052600436106100915760003560e01c8063ad870c0f11610059578063ad870c0f14610196578063af97dce0146101c6578063d24f8cdd14610203578063f0bdb5c614610242578063fdac32541461027f57610091565b80633520d4ed14610096578063476d9e92146100bf578063633c9951146100fc57806381d12c5814610125578063934aa02314610169575b600080fd5b3480156100a257600080fd5b506100bd60048036038101906100b89190610d0d565b6102af565b005b3480156100cb57600080fd5b506100e660048036038101906100e19190610dab565b610406565b6040516100f39190610dfa565b60405180910390f35b34801561010857600080fd5b50610123600480360381019061011e9190610f5b565b610435565b005b34801561013157600080fd5b5061014c60048036038101906101479190610fca565b61058e565b604051610160989796959493929190611094565b60405180910390f35b34801561017557600080fd5b5061017e61069b565b60405161018d93929190611119565b60405180910390f35b6101b060048036038101906101ab919061115e565b6107e3565b6040516101bd9190610dfa565b60405180910390f35b3480156101d257600080fd5b506101ed60048036038101906101e8919061119e565b610847565b6040516101fa91906112b2565b60405180910390f35b34801561020f57600080fd5b5061022a600480360381019061022591906112d4565b610938565b60405161023993929190611301565b60405180910390f35b34801561024e57600080fd5b5061026960048036038101906102649190610fca565b610a0a565b6040516102769190610dfa565b60405180910390f35b61029960048036038101906102949190610fca565b610bcc565b6040516102a69190610dfa565b60405180910390f35b6005600083815260200190815260200160002060003373ffffffffffffffffffffffffffffffffffffffff1673ffffffffffffffffffffffffffffffffffffffff16815260200190815260200160002060009054906101000a900460ff161561031757600080fd5b806005600084815260200190815260200160002060003373ffffffffffffffffffffffffffffffffffffffff1673ffffffffffffffffffffffffffffffffffffffff16815260200190815260200160002060006101000a81548160ff021916908315150217905550600482815481106103935761039261133f565b5b906000526020600020906007020160060160008154809291906103b59061139d565b9190505550600115158115150361040257600482815481106103da576103d961133f565b5b906000526020600020906007020160050160008154809291906103fc9061139d565b91905055505b5050565b60056020528160005260406000206020528060005260406000206000915091509054906101000a900460ff1681565b60006006600081548092919061044a9061139d565b9190505590506000604051806101000160405280838152602001868152602001858152602001600081526020018473ffffffffffffffffffffffffffffffffffffffff168152602001600015158152602001600081526020016000815250905060048190806001815401808255809150506001900390600052602060002090600702016000909190919091506000820151816000015560208201518160010190816104f591906115f1565b50604082015181600201556060820151816003015560808201518160040160006101000a81548173ffffffffffffffffffffffffffffffffffffffff021916908373ffffffffffffffffffffffffffffffffffffffff16021790555060a08201518160040160146101000a81548160ff02191690831515021790555060c0820151816005015560e0820151816006015550505050505050565b6004818154811061059e57600080fd5b90600052602060002090600702016000915090508060000154908060010180546105c790611414565b80601f01602080910402602001604051908101604052809291908181526020018280546105f390611414565b80156106405780601f1061061557610100808354040283529160200191610640565b820191906000526020600020905b81548152906001019060200180831161062357829003601f168201915b5050505050908060020154908060030154908060040160009054906101000a900473ffffffffffffffffffffffffffffffffffffffff16908060040160149054906101000a900460ff16908060050154908060060154905088565b60008060000180546106ac90611414565b80601f01602080910402602001604051908101604052809291908181526020018280546106d890611414565b80156107255780601f106106fa57610100808354040283529160200191610725565b820191906000526020600020905b81548152906001019060200180831161070857829003601f168201915b5050505050908060010160009054906101000a900473ffffffffffffffffffffffffffffffffffffffff169080600201805461076090611414565b80601f016020809104026020016040519081016040528092919081815260200182805461078c90611414565b80156107d95780601f106107ae576101008083540402835291602001916107d9565b820191906000526020600020905b8154815290600101906020018083116107bc57829003601f168201915b5050505050905083565b600081341061083c578273ffffffffffffffffffffffffffffffffffffffff166108fc839081150290604051600060405180830381858888f19350505050158015610832573d6000803e3d6000fd5b5060019050610841565b600090505b92915050565b61084f610c54565b600060405180606001604052803373ffffffffffffffffffffffffffffffffffffffff16815260200185815260200184815250905080600360003373ffffffffffffffffffffffffffffffffffffffff1673ffffffffffffffffffffffffffffffffffffffff16815260200190815260200160002060008201518160000160006101000a81548173ffffffffffffffffffffffffffffffffffffffff021916908373ffffffffffffffffffffffffffffffffffffffff160217905550602082015181600101908161092091906115f1565b50604082015181600201559050508091505092915050565b60036020528060005260406000206000915090508060000160009054906101000a900473ffffffffffffffffffffffffffffffffffffffff169080600101805461098190611414565b80601f01602080910402602001604051908101604052809291908181526020018280546109ad90611414565b80156109fa5780601f106109cf576101008083540402835291602001916109fa565b820191906000526020600020905b8154815290600101906020018083116109dd57829003601f168201915b5050505050908060020154905083565b6000600260048381548110610a2257610a2161133f565b5b906000526020600020906007020160060154610a3e91906116f2565b60048381548110610a5257610a5161133f565b5b90600052602060002090600702016005015410610bc257600060010160009054906101000a900473ffffffffffffffffffffffffffffffffffffffff1673ffffffffffffffffffffffffffffffffffffffff163373ffffffffffffffffffffffffffffffffffffffff1603610bb95760048281548110610ad557610ad461133f565b5b906000526020600020906007020160040160009054906101000a900473ffffffffffffffffffffffffffffffffffffffff1673ffffffffffffffffffffffffffffffffffffffff166108fc60048481548110610b3457610b3361133f565b5b9060005260206000209060070201600201549081150290604051600060405180830381858888f19350505050158015610b71573d6000803e3d6000fd5b50600160048381548110610b8857610b8761133f565b5b906000526020600020906007020160040160146101000a81548160ff02191690831515021790555060019050610bc7565b60009050610bc7565b600090505b919050565b6000813410610c4a57600060010160009054906101000a900473ffffffffffffffffffffffffffffffffffffffff1673ffffffffffffffffffffffffffffffffffffffff166108fc839081150290604051600060405180830381858888f19350505050158015610c40573d6000803e3d6000fd5b5060019050610c4f565b600090505b919050565b6040518060600160405280600073ffffffffffffffffffffffffffffffffffffffff16815260200160608152602001600081525090565b6000604051905090565b600080fd5b600080fd5b6000819050919050565b610cb281610c9f565b8114610cbd57600080fd5b50565b600081359050610ccf81610ca9565b92915050565b60008115159050919050565b610cea81610cd5565b8114610cf557600080fd5b50565b600081359050610d0781610ce1565b92915050565b60008060408385031215610d2457610d23610c95565b5b6000610d3285828601610cc0565b9250506020610d4385828601610cf8565b9150509250929050565b600073ffffffffffffffffffffffffffffffffffffffff82169050919050565b6000610d7882610d4d565b9050919050565b610d8881610d6d565b8114610d9357600080fd5b50565b600081359050610da581610d7f565b92915050565b60008060408385031215610dc257610dc1610c95565b5b6000610dd085828601610cc0565b9250506020610de185828601610d96565b9150509250929050565b610df481610cd5565b82525050565b6000602082019050610e0f6000830184610deb565b92915050565b600080fd5b600080fd5b6000601f19601f8301169050919050565b7f4e487b7100000000000000000000000000000000000000000000000000000000600052604160045260246000fd5b610e6882610e1f565b810181811067ffffffffffffffff82111715610e8757610e86610e30565b5b80604052505050565b6000610e9a610c8b565b9050610ea68282610e5f565b919050565b600067ffffffffffffffff821115610ec657610ec5610e30565b5b610ecf82610e1f565b9050602081019050919050565b82818337600083830152505050565b6000610efe610ef984610eab565b610e90565b905082815260208101848484011115610f1a57610f19610e1a565b5b610f25848285610edc565b509392505050565b600082601f830112610f4257610f41610e15565b5b8135610f52848260208601610eeb565b91505092915050565b600080600060608486031215610f7457610f73610c95565b5b600084013567ffffffffffffffff811115610f9257610f91610c9a565b5b610f9e86828701610f2d565b9350506020610faf86828701610cc0565b9250506040610fc086828701610d96565b9150509250925092565b600060208284031215610fe057610fdf610c95565b5b6000610fee84828501610cc0565b91505092915050565b61100081610c9f565b82525050565b600081519050919050565b600082825260208201905092915050565b60005b83811015611040578082015181840152602081019050611025565b60008484015250505050565b600061105782611006565b6110618185611011565b9350611071818560208601611022565b61107a81610e1f565b840191505092915050565b61108e81610d6d565b82525050565b6000610100820190506110aa600083018b610ff7565b81810360208301526110bc818a61104c565b90506110cb6040830189610ff7565b6110d86060830188610ff7565b6110e56080830187611085565b6110f260a0830186610deb565b6110ff60c0830185610ff7565b61110c60e0830184610ff7565b9998505050505050505050565b60006060820190508181036000830152611133818661104c565b90506111426020830185611085565b8181036040830152611154818461104c565b9050949350505050565b6000806040838503121561117557611174610c95565b5b600061118385828601610d96565b925050602061119485828601610cc0565b9150509250929050565b600080604083850312156111b5576111b4610c95565b5b600083013567ffffffffffffffff8111156111d3576111d2610c9a565b5b6111df85828601610f2d565b92505060206111f085828601610cc0565b9150509250929050565b61120381610d6d565b82525050565b600082825260208201905092915050565b600061122582611006565b61122f8185611209565b935061123f818560208601611022565b61124881610e1f565b840191505092915050565b61125c81610c9f565b82525050565b600060608301600083015161127a60008601826111fa565b5060208301518482036020860152611292828261121a565b91505060408301516112a76040860182611253565b508091505092915050565b600060208201905081810360008301526112cc8184611262565b905092915050565b6000602082840312156112ea576112e9610c95565b5b60006112f884828501610d96565b91505092915050565b60006060820190506113166000830186611085565b8181036020830152611328818561104c565b90506113376040830184610ff7565b949350505050565b7f4e487b7100000000000000000000000000000000000000000000000000000000600052603260045260246000fd5b7f4e487b7100000000000000000000000000000000000000000000000000000000600052601160045260246000fd5b60006113a882610c9f565b91507fffffffffffffffffffffffffffffffffffffffffffffffffffffffffffffffff82036113da576113d961136e565b5b600182019050919050565b7f4e487b7100000000000000000000000000000000000000000000000000000000600052602260045260246000fd5b6000600282049050600182168061142c57607f821691505b60208210810361143f5761143e6113e5565b5b50919050565b60008190508160005260206000209050919050565b60006020601f8301049050919050565b600082821b905092915050565b6000600883026114a77fffffffffffffffffffffffffffffffffffffffffffffffffffffffffffffffff8261146a565b6114b1868361146a565b95508019841693508086168417925050509392505050565b6000819050919050565b60006114ee6114e96114e484610c9f565b6114c9565b610c9f565b9050919050565b6000819050919050565b611508836114d3565b61151c611514826114f5565b848454611477565b825550505050565b600090565b611531611524565b61153c8184846114ff565b505050565b5b8181101561156057611555600082611529565b600181019050611542565b5050565b601f8211156115a55761157681611445565b61157f8461145a565b8101602085101561158e578190505b6115a261159a8561145a565b830182611541565b50505b505050565b600082821c905092915050565b60006115c8600019846008026115aa565b1980831691505092915050565b60006115e183836115b7565b9150826002028217905092915050565b6115fa82611006565b67ffffffffffffffff81111561161357611612610e30565b5b61161d8254611414565b611628828285611564565b600060209050601f83116001811461165b5760008415611649578287015190505b61165385826115d5565b8655506116bb565b601f19841661166986611445565b60005b828110156116915784890151825560018201915060208501945060208101905061166c565b868310156116ae57848901516116aa601f8916826115b7565b8355505b6001600288020188555050505b505050505050565b7f4e487b7100000000000000000000000000000000000000000000000000000000600052601260045260246000fd5b60006116fd82610c9f565b915061170883610c9f565b925082611718576117176116c3565b5b82820490509291505056fea2646970667358221220dbe088bc5ffbf2a21f61ffbc6306c96a86da3edef60d4677017e66d57010d4c164736f6c63430008110033",
  "immutableReferences": {},
  "source": "//SPDX-License-Identifier: MIT\npragma solidity 0.8.17;\n\ncontract Charity{\n\nstruct charityOrganization{\n  string charityName;\n  address charityAddress;\n  string Desc;\n}\ncharityOrganization public charity;\n\nstruct Donator{\n    address donatorAddress;\n    string donarname;\n    //amount of donation\n//    uint amount;\n    //which project?\n    uint projectId;\n\n\n}\n//Donator[] public donators;\nmapping(address=>Donator) public donators;\n\nstruct Request{\n    uint Id;\n    string description;\n    uint goalAmount;\n    uint fundedAmount;\n    address account;\n    bool succsess;\n    uint votesCount;\n    uint totalvotes;\n}\nRequest[] public requests;\nmapping(uint => mapping(address =>bool))public aprovals;//what request| who aproves it\nuint aprovalsLenght;\n\nconstructor(){\n      charity = charityOrganization(\"charityOf3Musketry\",msg.sender,\"Genuine Charity App\");\n      aprovalsLenght=0;\n}\n\nfunction transfor(address to,uint amount)public payable returns(bool){\n    if(msg.value>=amount){\n        payable(to).transfer(amount);\n     return true;\n    }\n    return false;\n}\nfunction creatDonator(string memory name , uint pId)public returns(Donator memory){\n    Donator memory newD= Donator(msg.sender,name, pId);\n    donators[msg.sender]=newD;\n    return newD;\n\n}\nfunction donation(uint amount)public payable returns(bool){\n    if(msg.value>=amount){\n        payable(charity.charityAddress).transfer(amount);\n     return true;\n    }\n    return false;\n}\nfunction donarotVotesRequset(uint requestId,bool vote)public{\n    // vote just vote no tranfer money for now\n    require(!aprovals[requestId][msg.sender]);\n    aprovals[requestId][msg.sender]=vote;\n    requests[requestId].totalvotes++;\n    if(vote==true)requests[requestId].votesCount++;\n\n}\n\nfunction createFundingBeneficiaryRequest(string memory description, uint goalAmount, address account) public {\n    uint id = aprovalsLenght++;\n    Request memory newRequest = Request(id,description,goalAmount, 0,account,false,0,0);\n    requests.push(newRequest);\n}\n\nfunction beneficiaryGetMoney(uint requestId) public returns(bool){\n    //if enough votes - > pay beneficiary \n//    requests[requestId].fundedAmount+=amount;\n    if(requests[requestId].votesCount>=(requests[requestId].totalvotes/2)){\n        //check if charity can transform the money\n        if (msg.sender == charity.charityAddress){\n            // pay money to benficiary\n            payable(requests[requestId].account).transfer(requests[requestId].goalAmount);\n            requests[requestId].succsess=true;\n            return true;\n            }\n        return false;\n    }\n    return false;\n\n}\n\n}",
  "sourcePath": "/home/ayda/Desktop/softwareP/contracts/charity.sol",
  "compiler": {
    "name": "solc",
    "version": "0.8.17+commit.8df45f5f.Emscripten.clang"
  },
  "schemaVersion": "3.4.11",
  "updatedAt": "2022-12-01T05:33:40.642Z",
  "devdoc": {
    "kind": "dev",
    "methods": {},
    "version": 1
  },
  "userdoc": {
    "kind": "user",
    "methods": {},
    "version": 1
  }
}