{
  "contractName": "HelloBlockchain",
  "abi": [
    {
      "inputs": [
        {
          "internalType": "string",
          "name": "message",
          "type": "string"
        }
      ],
      "stateMutability": "nonpayable",
      "type": "constructor"
    },
    {
      "inputs": [],
      "name": "RequestMessage",
      "outputs": [
        {
          "internalType": "string",
          "name": "",
          "type": "string"
        }
      ],
      "stateMutability": "view",
      "type": "function"
    },
    {
      "inputs": [],
      "name": "Requestor",
      "outputs": [
        {
          "internalType": "address",
          "name": "",
          "type": "address"
        }
      ],
      "stateMutability": "view",
      "type": "function"
    },
    {
      "inputs": [],
      "name": "Responder",
      "outputs": [
        {
          "internalType": "address",
          "name": "",
          "type": "address"
        }
      ],
      "stateMutability": "view",
      "type": "function"
    },
    {
      "inputs": [],
      "name": "ResponseMessage",
      "outputs": [
        {
          "internalType": "string",
          "name": "",
          "type": "string"
        }
      ],
      "stateMutability": "view",
      "type": "function"
    },
    {
      "inputs": [],
      "name": "State",
      "outputs": [
        {
          "internalType": "enum HelloBlockchain.StateType",
          "name": "",
          "type": "uint8"
        }
      ],
      "stateMutability": "view",
      "type": "function"
    },
    {
      "inputs": [
        {
          "internalType": "string",
          "name": "requestMessage",
          "type": "string"
        }
      ],
      "name": "SendRequest",
      "outputs": [],
      "stateMutability": "nonpayable",
      "type": "function"
    },
    {
      "inputs": [
        {
          "internalType": "string",
          "name": "responseMessage",
          "type": "string"
        }
      ],
      "name": "SendResponse",
      "outputs": [],
      "stateMutability": "nonpayable",
      "type": "function"
    }
  ],
  "bytecode": "0x60806040523480156200001157600080fd5b506040516200104138038062001041833981810160405281019062000037919062000251565b33600060016101000a81548173ffffffffffffffffffffffffffffffffffffffff021916908373ffffffffffffffffffffffffffffffffffffffff1602179055508060029081620000899190620004ed565b5060008060006101000a81548160ff02191690836001811115620000b257620000b1620005d4565b5b02179055505062000603565b6000604051905090565b600080fd5b600080fd5b600080fd5b600080fd5b6000601f19601f8301169050919050565b7f4e487b7100000000000000000000000000000000000000000000000000000000600052604160045260246000fd5b6200012782620000dc565b810181811067ffffffffffffffff82111715620001495762000148620000ed565b5b80604052505050565b60006200015e620000be565b90506200016c82826200011c565b919050565b600067ffffffffffffffff8211156200018f576200018e620000ed565b5b6200019a82620000dc565b9050602081019050919050565b60005b83811015620001c7578082015181840152602081019050620001aa565b60008484015250505050565b6000620001ea620001e48462000171565b62000152565b905082815260208101848484011115620002095762000208620000d7565b5b62000216848285620001a7565b509392505050565b600082601f830112620002365762000235620000d2565b5b815162000248848260208601620001d3565b91505092915050565b6000602082840312156200026a5762000269620000c8565b5b600082015167ffffffffffffffff8111156200028b576200028a620000cd565b5b62000299848285016200021e565b91505092915050565b600081519050919050565b7f4e487b7100000000000000000000000000000000000000000000000000000000600052602260045260246000fd5b60006002820490506001821680620002f557607f821691505b6020821081036200030b576200030a620002ad565b5b50919050565b60008190508160005260206000209050919050565b60006020601f8301049050919050565b600082821b905092915050565b600060088302620003757fffffffffffffffffffffffffffffffffffffffffffffffffffffffffffffffff8262000336565b62000381868362000336565b95508019841693508086168417925050509392505050565b6000819050919050565b6000819050919050565b6000620003ce620003c8620003c28462000399565b620003a3565b62000399565b9050919050565b6000819050919050565b620003ea83620003ad565b62000402620003f982620003d5565b84845462000343565b825550505050565b600090565b620004196200040a565b62000426818484620003df565b505050565b5b818110156200044e57620004426000826200040f565b6001810190506200042c565b5050565b601f8211156200049d57620004678162000311565b620004728462000326565b8101602085101562000482578190505b6200049a620004918562000326565b8301826200042b565b50505b505050565b600082821c905092915050565b6000620004c260001984600802620004a2565b1980831691505092915050565b6000620004dd8383620004af565b9150826002028217905092915050565b620004f882620002a2565b67ffffffffffffffff811115620005145762000513620000ed565b5b620005208254620002dc565b6200052d82828562000452565b600060209050601f83116001811462000565576000841562000550578287015190505b6200055c8582620004cf565b865550620005cc565b601f198416620005758662000311565b60005b828110156200059f5784890151825560018201915060208501945060208101905062000578565b86831015620005bf5784890151620005bb601f891682620004af565b8355505b6001600288020188555050505b505050505050565b7f4e487b7100000000000000000000000000000000000000000000000000000000600052602160045260246000fd5b610a2e80620006136000396000f3fe608060405234801561001057600080fd5b506004361061007d5760003560e01c8063d181ada11161005b578063d181ada1146100d8578063e750e2da146100f6578063f1b6dccd14610114578063fd05116c146101325761007d565b80635ab28ecb14610082578063829c2d6d146100a0578063a7a1ba15146100bc575b600080fd5b61008a610150565b604051610097919061046e565b60405180910390f35b6100ba60048036038101906100b591906105d9565b6101de565b005b6100d660048036038101906100d191906105d9565b61025c565b005b6100e06102f3565b6040516100ed9190610663565b60405180910390f35b6100fe610319565b60405161010b919061046e565b60405180910390f35b61011c6103a7565b60405161012991906106f5565b60405180910390f35b61013a6103b8565b6040516101479190610663565b60405180910390f35b6003805461015d9061073f565b80601f01602080910402602001604051908101604052809291908181526020018280546101899061073f565b80156101d65780601f106101ab576101008083540402835291602001916101d6565b820191906000526020600020905b8154815290600101906020018083116101b957829003601f168201915b505050505081565b33600160006101000a81548173ffffffffffffffffffffffffffffffffffffffff021916908373ffffffffffffffffffffffffffffffffffffffff160217905550806003908161022e9190610926565b5060016000806101000a81548160ff021916908360018111156102545761025361067e565b5b021790555050565b3373ffffffffffffffffffffffffffffffffffffffff16600060019054906101000a900473ffffffffffffffffffffffffffffffffffffffff1673ffffffffffffffffffffffffffffffffffffffff16146102b657600080fd5b80600290816102c59190610926565b5060008060006101000a81548160ff021916908360018111156102eb576102ea61067e565b5b021790555050565b600160009054906101000a900473ffffffffffffffffffffffffffffffffffffffff1681565b600280546103269061073f565b80601f01602080910402602001604051908101604052809291908181526020018280546103529061073f565b801561039f5780601f106103745761010080835404028352916020019161039f565b820191906000526020600020905b81548152906001019060200180831161038257829003601f168201915b505050505081565b60008054906101000a900460ff1681565b600060019054906101000a900473ffffffffffffffffffffffffffffffffffffffff1681565b600081519050919050565b600082825260208201905092915050565b60005b838110156104185780820151818401526020810190506103fd565b60008484015250505050565b6000601f19601f8301169050919050565b6000610440826103de565b61044a81856103e9565b935061045a8185602086016103fa565b61046381610424565b840191505092915050565b600060208201905081810360008301526104888184610435565b905092915050565b6000604051905090565b600080fd5b600080fd5b600080fd5b600080fd5b7f4e487b7100000000000000000000000000000000000000000000000000000000600052604160045260246000fd5b6104e682610424565b810181811067ffffffffffffffff82111715610505576105046104ae565b5b80604052505050565b6000610518610490565b905061052482826104dd565b919050565b600067ffffffffffffffff821115610544576105436104ae565b5b61054d82610424565b9050602081019050919050565b82818337600083830152505050565b600061057c61057784610529565b61050e565b905082815260208101848484011115610598576105976104a9565b5b6105a384828561055a565b509392505050565b600082601f8301126105c0576105bf6104a4565b5b81356105d0848260208601610569565b91505092915050565b6000602082840312156105ef576105ee61049a565b5b600082013567ffffffffffffffff81111561060d5761060c61049f565b5b610619848285016105ab565b91505092915050565b600073ffffffffffffffffffffffffffffffffffffffff82169050919050565b600061064d82610622565b9050919050565b61065d81610642565b82525050565b60006020820190506106786000830184610654565b92915050565b7f4e487b7100000000000000000000000000000000000000000000000000000000600052602160045260246000fd5b600281106106be576106bd61067e565b5b50565b60008190506106cf826106ad565b919050565b60006106df826106c1565b9050919050565b6106ef816106d4565b82525050565b600060208201905061070a60008301846106e6565b92915050565b7f4e487b7100000000000000000000000000000000000000000000000000000000600052602260045260246000fd5b6000600282049050600182168061075757607f821691505b60208210810361076a57610769610710565b5b50919050565b60008190508160005260206000209050919050565b60006020601f8301049050919050565b600082821b905092915050565b6000600883026107d27fffffffffffffffffffffffffffffffffffffffffffffffffffffffffffffffff82610795565b6107dc8683610795565b95508019841693508086168417925050509392505050565b6000819050919050565b6000819050919050565b600061082361081e610819846107f4565b6107fe565b6107f4565b9050919050565b6000819050919050565b61083d83610808565b6108516108498261082a565b8484546107a2565b825550505050565b600090565b610866610859565b610871818484610834565b505050565b5b818110156108955761088a60008261085e565b600181019050610877565b5050565b601f8211156108da576108ab81610770565b6108b484610785565b810160208510156108c3578190505b6108d76108cf85610785565b830182610876565b50505b505050565b600082821c905092915050565b60006108fd600019846008026108df565b1980831691505092915050565b600061091683836108ec565b9150826002028217905092915050565b61092f826103de565b67ffffffffffffffff811115610948576109476104ae565b5b610952825461073f565b61095d828285610899565b600060209050601f831160018114610990576000841561097e578287015190505b610988858261090a565b8655506109f0565b601f19841661099e86610770565b60005b828110156109c6578489015182556001820191506020850194506020810190506109a1565b868310156109e357848901516109df601f8916826108ec565b8355505b6001600288020188555050505b50505050505056fea2646970667358221220108a1644808528a927704a02c488ae317dbec251225912b118fd39e2993f4be264736f6c63430008110033",
  "immutableReferences": {},
  "source": "// SPDX-License-Identifier: MIT\npragma solidity >=0.4.25 <0.9.0;\ncontract HelloBlockchain {\n    enum StateType { Request, Respond }\n\n    StateType public  State;\n    address public  Requestor;\n    address public  Responder;\n\n    string public RequestMessage;\n    string public ResponseMessage;\n\n    constructor(string memory message) {\n        Requestor = msg.sender;\n        RequestMessage = message;\n        State = StateType.Request;\n    }\n\n    // call this function to send a request\n    function SendRequest(string memory requestMessage) public {\n\n        if (Requestor != msg.sender) {\n            revert();\n        }\n\n        RequestMessage = requestMessage;\n        State = StateType.Request;\n    }\n\n    // call this function to send a response\n    function SendResponse(string memory responseMessage) public {\n\n        Responder = msg.sender;\n        ResponseMessage = responseMessage;\n        State = StateType.Respond;\n    }\n}\n",
  "sourcePath": "/home/ayda/Desktop/softwareP/contracts/hi.sol",
  "compiler": {
    "name": "solc",
    "version": "0.8.17+commit.8df45f5f.Emscripten.clang"
  },
  "schemaVersion": "3.4.11",
  "updatedAt": "2022-11-28T17:56:03.532Z",
  "devdoc": {
    "kind": "dev",
    "methods": {},
    "version": 1
  },
  "userdoc": {
    "kind": "user",
    "methods": {},
    "version": 1
  }
}